:020000040000FA
:0400000046EF00F0D7
:100008004882FACF3BF0FBCF3CF0D9CF3DF0DACFB6
:100018003EF00E01C2BBCAAB03D0FEEC01F028D003
:10002800F2AC26D0C5B3CDA303D07DEC02F020D02E
:10003800C5B1CDA103D048EC00F01AD0C5B9CDA9FF
:1000480008D001D815D00500FA6E4350FD6E445013
:100058000AD0C5BBCDAB0CD001D80AD00500FA6ECA
:100068004150FD6E4250FE6EF850FF6EFA5012007D
:100078003EC0DAFF3DC0D9FF3CC0FBFF3BC0FAFFE2
:10008800489211001BEF02F0CD9196AEC9D0969E12
:10009800206A9FEC01F0DECF39F0DDCF3AF039C0AD
:1000A800D9FF3AC0DAFF010EDF6E186A196A12002A
:1000B80013B2120012C018F0196A1250D96EDA6A17
:1000C800DF501F6E1250D96EDA6AD92ADF50396EA6
:1000D80039C01AF01B6A040E1226300E040F126281
:1000E80002D0300E126E13901150121801E11382D3
:1000F8009780020E206E020C97AC04D014D0040E28
:100108008CEF01F0D89035303A6E3430396E395072
:10011800926E34A003D00B0E206E0B0C030E206ED3
:10012800030C97AC02D0152AEAD797823550060BF4
:10013800396E3A6AF00E3910346E3A50356E3480A2
:10014800010E1D6ED6D71D0414E01AC0D9FF1BC0BE
:10015800DAFFDECF34F0DDCF35F020EE03F084D8BF
:10016800DECF16F0DDCF17F020EE02F07DD8DF509D
:100178001E6E345035100FE01D5007E13550060B48
:10018800F009926E0A0E206E0A0C34C092FF050E1A
:10019800206E1D6A120034C092FF34A0BFD7050E2E
:1001A800206E050C97AC05D0152A979C050E8CEF90
:1001B80001F01E061E2807E116EC02F01F2E01D0E2
:1001C80028D0978296D74BD8DF50926E164A172AB6
:1001D800120097AC06D0152A040E8CEC01F0979CFF
:1001E80012009786080E206E080C080E206E97865F
:1001F800080C35D892CFDFFF164A172A1E0604E0EE
:10020800979A060E206E03D0978A0DEC02F0978815
:100218001200000E8CEF01F0152A060E8CEF01F08B
:100228002050396E3A6A3A50F7E1395001E140D727
:10023800010AC7E0030A87E0010AB4E0070AE9E017
:10024800010AC7E0030AD1E0010AE3E00F0AD1E09E
:10025800020A01E151D7010A01E163D7DDD716C0CF
:10026800D9FF17C0DAFF12001A50D9261B50DA221C
:100278001200836A846A856A1F0E886E800E896EF2
:10028800980E8A6E210E0F01216F3F0E196F100E06
:10029800116F2D6B186B0F0E106F980E206F0F6B70
:1002A800176B1F6B0E6916691E69170E0E01B56F65
:1002B800130EB76F0D0EFA6F070EF86F0E0EFB6F69
:1002C800080EF96F090EFD6F140EB86F140CC59B5C
:1002D800BA0E3F6E030E406E76EC02F0C599740EAE
:1002E8003F6E030E406E71EC02F0080E9F6E900E8A
:1002F8009D6E240E9E6E820E9B6E060E9C6E256A67
:10030800246A080E476E236A226A216AC58B120086
:10031800386E978410D8DE50DE100BE00CD8DECF94
:1003280036F0DDCF37F036C0D9FF37C0DAFF38C036
:10033800DFFF206A120020EE02F01850D92619506B
:10034800DA2212007BEC02F055EC02F03DEC01F0F1
:100358005DEC02F0CCEC01F035EC02F040EC02F080
:100368004BEC02F0EEEC01F06BEF01F0080E476089
:100378000DD02450090FD96EDA6ADF509A6E242AFC
:10038800070E246401D0246A472A1200C599120076
:10039800300E126E116E13821390156A956A280E2C
:1003A800966E986A030E936ECD91CD93C581C583E1
:1003B800030C9DA202D09D989D882350010FD96EF1
:1003C800DA6A99CFDFFF232A070E236401D0236A54
:1003D800212A1200430ED66EF90ED46ED36ACA9B38
:1003E800C28BFE0E3F6E040E406E6CEC02F0870E60
:1003F800D56E870CCA9B45504610D8B4120005002C
:10040800FA6E4550FD6E4650FE6EF850FF6EFA507B
:10041800120008D81F2E03D0040E206E040C010E03
:10042800206E010C050E1A26000E1B22000C00EE91
:1004380001F0350EEE6AE806FDE148904892000E9C
:10044800F86E000128EF02F0A6EC01F0CA0E3F6E2C
:10045800040E406E6CEC02F0F28EF28C847804008C
:10046800FDD7800EA26E7F0EA16EC00EA06EAE509C
:100478003F0B4009AE6E1200800EA56E7F0EA46E73
:10048800C00EA36EAE50CF0B1009AE6E1200010E57
:10049800BF6EBE6AC06ABC68BB6ACE93800EBD6E72
:1004A800800C0E01E16BE26BE36BE46BE56BE66BD2
:1004B8001200600ED86FDA6BDC6B080EDE6FDD6B36
:1004C80012001C2A630E1C64630C1C6A847A1200D6
:1004D8003FC045F040C046F012003FC043F040C066
:1004E80044F012003FC041F040C042F01200F29ABE
:0804F8001200CD931200120066
:020000040020DA
:10000000FF0FFF0FFF0FFF0FFF0FFF0FFF0FFF0F80
:020000040030CA
:0C0000008CFFFFFF9FFFFFFFFFFFFFFFD3
:00000001FF
