:020000040000FA
:04050000C6EF02F050
:100508004882FACF3BF0FBCF3CF0D9CF3DF0DACFB1
:100518003EF00E01C2BBCAAB03D07EEC04F028D07B
:10052800F2AC26D0C5B3CDA303D0FEEC04F020D0A6
:10053800C5B1CDA103D0C8EC02F01AD0C5B9CDA978
:1009B800E66B1200600ED86FDA6BDC6B080EDE6F28
:1009C800DD6B12001C2A630E1C64630C1C6A847A9B
:1009D80012003FC045F040C046F012003FC043F04F
:1009E80040C044F012003FC041F040C042F0120045
:0A09F800F29A1200CD9312001200D3
:020000040020DA
:10000000FF0FFF0FFF0FFF0FFF0FFF0FFF0FFF0F80
:020000040030CA
:0C000000FFFFFFFFFFFFFFFFFFFFFFFF00
:020000040031C9
:080000000001020304050607DC
:00000001FF
