:020000040000FA
:040000000EEF00F00F
:0400080084EF02F08F
:100018008CEF02F0FAEF01F09EA2FED742EC02F05C
:1000280004D09FAE03D09F909F9E9F809FB0F9D72A
:100038001AEC02F0576E576A090E566E15D01AEC74
:1000480002F0556E25D855C0DFFF572A040E571801
:100058000BE1020E021806E0050E021803E0070E77
:10006800021802E1035056265650575CE8E3CBECE1
:1000780000F0566E550E3BEC02F0576A05D008D8D2
:10008800DF503BEC02F0572A5650575CC5E2F7D7D1
:100098005750020FD96EDA6A1200BCEC00F0A40EB9
:1000A800816EF85005E170EC01F002E2C3EF00F058
:1000B800526A536A2AD05250D7EC01F0F56EF850C4
:1000C80002E0C3EF00F0C6EC00F002E3C3EF00F07B
:1000D8000D00F6503F0B3F0A12E04E684F6820EEC5
:1000E80003F0DECF50F0DDCF51F04E5050264F5088
:1000F80051225250501807E15350511804E10A0098
:1001080033EC02F00900524A532A0350525C04505F
:100118005358D1E327EF01F02BD8C00EF6144E6EDA
:10012800FF0EF7144F6EFF0EF814506E505004E196
:10013800050E4F5C01E223D0516A526A0FD0F85085
:100148001EE120D81CE2940E816E33EC02F0400EC2
:10015800F626000EF722F822514A522A0350515C23
:1001680004505258ECE3010E0B6E056A066A0A0C3D
:1001780007C0F6FF08C0F7FF09C0F8FF1200FE0E1F
:100188000B6E0A0C000EF65C400EF758120005C004
:1001980000F006C001F01DD02CEC01F018D051EC95
:1001A80000F015D090EC00F012D0BDEC01F00FD0AB
:1001B80055EC01F00CD000EC01F009D07BEC01F01B
:1001C80006D0010E4B6E090E02D00B680A0E546E53
:1001D80011D00250E1E0020AE2E0010AE3E0060A77
:1001E800E4E0030AE5E0010AE6E00F0AE7E0010AB5
:1001F800E8E0EBD754501200BCEC00F0F85005E1F1
:1002080070EC01F002E2C3EF00F0100EF65C000E95
:10021800F758200EF858C40ED8A0840E816E506A84
:1002280009D05050D7EC01F0F56E0C0033EC02F019
:10023800F62A502A50504E6E4F6A03504E5C0450B6
:100248004F58EFE300D0010E0B6E006A016A0A0CEA
:100258000B6A010E0C6E0D6A010E0E6E0F6A106AA3
:100268003F0EF86EF768FE0EF66EC00E816E09003E
:10027800F5CF11F00900F5CF12F0136A146A400E99
:10028800156E166E300EF86EF76AF66A0C0E4E6E24
:1002980009004E5075EC01F04E2A0F0E4E64F8D747
:1002A800190CBCEC00F0C00E816EF85004E114D8B3
:1002B80002E2C3EF00F0506A04D00900505011D890
:1002C800502A50504E6E4F6A03504E5C04504F589F
:1002D800F4E30350090F1200000EF65C050EF75800
:1002E80012000B0FD96EDA6AF5CFDFFF1200BCECF3
:1002F80000F0800E816E4C6A4D6A03C04EF004C057
:100308004FF0506A516A0CD00900F5504C26000E87
:100318004D220900F5504D26020E5026000E51229E
:100328004E50505C4F505158EFE34CC00BF04DC04D
:100338000CF00B0C836A846A400E856E8868EF0E99
:10034800896EBF0E8A6E0F01216B196B116B2D6BB5
:10035800EF0E186F1069BF0E206F0F6B176B1F6BB6
:100368000E6916691E69170E0E01B56F090EFD6F2D
:10037800090C07C07EFF040E816E506A09D081B255
:10038800FED77E2A50500FD8806E33EC02F0502AE8
:1003980050504E6E4F6A03504E5C04504F58EFE376
:1003A800010E0B6E0A0C0B0FD96EDA6ADF501200C1
:1003B8004E6A00F04E2A4E28FCE18EAA010CF66A1D
:1003C800050EF76EF86A800E816E0900F52801E1C6
:1003D800010C000C8488DCEC01F0E80602E110EC6A
:1003E80000F0FC6A849880EF02F0120000EE02F040
:1003F8004C0EEE6AE806FDE1000EF86E000148EFCB
:1004080002F0080E9F6E900E9D6E240E9E6E820E58
:100418009B6E060E9C6E060C23EC02F09EEC01F01F
:100428002BEC02F005EC02F0EEEF01F00E01CDAB83
:10043800FDD79DA202D09D989D88995012000E016B
:10044800E16BE26BE36BE46BE56BE66B1200600E4D
:10045800D86FDA6BDC6B080EDE6FDD6B120000C044
:1004680082FF01C082FF818200F000F012004E6E10
:100478000E01CDA9FDD74EC09AFF12004B04D8A497
:0E04880012008498FF00120010EC02F0FFD763
:020000040020DA
:10000000FF0FFF0FFF0FFF0FFF0FFF0FFF0FFF0F80
:020000040030CA
:0C0000008CFFFFFF9FFFFFFFFFFFFFFFD3
:00000001FF
